{
    "_format": "hh-sol-artifact-1",
    "contractName": "OracleFacingFireConsumer",
    "sourceName": "contracts/OracleFacingFireConsumer.sol",
    "abi": [
        {
            "anonymous": false,
            "inputs": [
                {
                    "indexed": true,
                    "internalType": "bytes32",
                    "name": "id",
                    "type": "bytes32"
                }
            ],
            "name": "ChainlinkCancelled",
            "type": "event"
        },
        {
            "anonymous": false,
            "inputs": [
                {
                    "indexed": true,
                    "internalType": "bytes32",
                    "name": "id",
                    "type": "bytes32"
                }
            ],
            "name": "ChainlinkFulfilled",
            "type": "event"
        },
        {
            "anonymous": false,
            "inputs": [
                {
                    "indexed": true,
                    "internalType": "bytes32",
                    "name": "id",
                    "type": "bytes32"
                }
            ],
            "name": "ChainlinkRequested",
            "type": "event"
        },
        {
            "inputs": [
                {
                    "internalType": "bytes32",
                    "name": "requestId",
                    "type": "bytes32"
                },
                {
                    "internalType": "uint256[]",
                    "name": "fireData",
                    "type": "uint256[]"
                },
                {
                    "internalType": "string",
                    "name": "cidValue",
                    "type": "string"
                }
            ],
            "name": "fulfillFireData",
            "outputs": [],
            "stateMutability": "nonpayable",
            "type": "function"
        },
        {
            "inputs": [
                {
                    "internalType": "uint256",
                    "name": "index",
                    "type": "uint256"
                }
            ],
            "name": "getCid",
            "outputs": [
                {
                    "internalType": "string",
                    "name": "",
                    "type": "string"
                }
            ],
            "stateMutability": "view",
            "type": "function"
        },
        {
            "inputs": [
                {
                    "internalType": "uint256",
                    "name": "propertyID",
                    "type": "uint256"
                }
            ],
            "name": "getFireData",
            "outputs": [
                {
                    "internalType": "uint256",
                    "name": "",
                    "type": "uint256"
                }
            ],
            "stateMutability": "view",
            "type": "function"
        },
        {
            "inputs": [
                {
                    "internalType": "uint256",
                    "name": "property_id",
                    "type": "uint256"
                }
            ],
            "name": "getGeometry",
            "outputs": [
                {
                    "internalType": "string",
                    "name": "",
                    "type": "string"
                }
            ],
            "stateMutability": "view",
            "type": "function"
        },
        {
            "inputs": [
                {
                    "internalType": "string",
                    "name": "dataset_code",
                    "type": "string"
                },
                {
                    "internalType": "string",
                    "name": "selected_band",
                    "type": "string"
                },
                {
                    "internalType": "string",
                    "name": "image_scale",
                    "type": "string"
                },
                {
                    "internalType": "string",
                    "name": "start_date",
                    "type": "string"
                },
                {
                    "internalType": "string",
                    "name": "end_date",
                    "type": "string"
                },
                {
                    "components": [
                        {
                            "internalType": "uint256",
                            "name": "property_id",
                            "type": "uint256"
                        },
                        {
                            "internalType": "string",
                            "name": "coordinates",
                            "type": "string"
                        }
                    ],
                    "internalType": "struct ShambaFireConsumer.Geometry[]",
                    "name": "geometry",
                    "type": "tuple[]"
                }
            ],
            "name": "requestFireData",
            "outputs": [],
            "stateMutability": "nonpayable",
            "type": "function"
        },
        {
            "inputs": [],
            "name": "total_oracle_calls",
            "outputs": [
                {
                    "internalType": "uint256",
                    "name": "",
                    "type": "uint256"
                }
            ],
            "stateMutability": "view",
            "type": "function"
        }
    ],
    "bytecode": "0x60806040526001600455600060085534801561001a57600080fd5b5061003e73326c977e6efc84e512bb9c30f76e30c160ed06fb61006660201b60201c565b61006173d655099967ad0d861fd5a50fa60c59039718cf806100aa60201b60201c565b6100ee565b80600260006101000a81548173ffffffffffffffffffffffffffffffffffffffff021916908373ffffffffffffffffffffffffffffffffffffffff16021790555050565b80600360006101000a81548173ffffffffffffffffffffffffffffffffffffffff021916908373ffffffffffffffffffffffffffffffffffffffff16021790555050565b61251980620000fe6000396000f3fe608060405234801561001057600080fd5b50600436106100625760003560e01c8063292058f8146100675780633beaa6ab1461008357806374747bff146100b3578063b16abf92146100d1578063ca49c13714610101578063d459dd961461011d575b600080fd5b610081600480360381019061007c91906117cb565b61014d565b005b61009d60048036038101906100989190611990565b61030d565b6040516100aa9190611c42565b60405180910390f35b6100bb6103b2565b6040516100c89190611ca4565b60405180910390f35b6100eb60048036038101906100e69190611990565b6103b8565b6040516100f89190611ca4565b60405180910390f35b61011b6004803603810190610116919061185b565b6103d5565b005b61013760048036038101906101329190611990565b61081f565b6040516101449190611c42565b60405180910390f35b836005600082815260200190815260200160002060009054906101000a900473ffffffffffffffffffffffffffffffffffffffff1673ffffffffffffffffffffffffffffffffffffffff163373ffffffffffffffffffffffffffffffffffffffff16146101ef576040517f08c379a00000000000000000000000000000000000000000000000000000000081526004016101e690611c84565b60405180910390fd5b6005600082815260200190815260200160002060006101000a81549073ffffffffffffffffffffffffffffffffffffffff0219169055807f7cc135e0cebb02c3480ae5d74d377283180a2601f8f644edf7987b009316c63a60405160405180910390a260005b84518110156102af57848181518110610271576102706122c4565b5b60200260200101516006600060018461028a9190611db0565b81526020019081526020016000208190555080806102a79061218f565b915050610255565b508282600791906102c1929190611296565b5060076009600060085481526020019081526020016000209080546102e59061212c565b6102f092919061131c565b5060016008546103009190611db0565b6008819055505050505050565b606060096000838152602001908152602001600020805461032d9061212c565b80601f01602080910402602001604051908101604052809291908181526020018280546103599061212c565b80156103a65780601f1061037b576101008083540402835291602001916103a6565b820191906000526020600020905b81548152906001019060200180831161038957829003601f168201915b50505050509050919050565b60085481565b600060066000838152602001908152602001600020549050919050565b60007f333565353564346630633038346537306165616661363964643564386433636690506000670de0b6b3a76400009050600061041b833063292058f860e01b6108c4565b9050600061045e6040518060400160405280601181526020017f7b22646174617365745f636f6465223a220000000000000000000000000000008152508b6108f5565b905061049f816040518060400160405280601481526020017f222c202273656c65637465645f62616e64223a220000000000000000000000008152506108f5565b90506104ab818a6108f5565b90506104ec816040518060400160405280601181526020017f222c2022696d6167655f7363616c65223a0000000000000000000000000000008152506108f5565b90506104f881896108f5565b9050610539816040518060400160405280601081526020017f2c202273746172745f64617465223a22000000000000000000000000000000008152506108f5565b905061054581886108f5565b9050610586816040518060400160405280600f81526020017f222c2022656e645f64617465223a2200000000000000000000000000000000008152506108f5565b905061059281876108f5565b90506105b681604051806060016040528060368152602001612481603691396108f5565b905060005b8551811015610776578581815181106105d7576105d66122c4565b5b602002602001015160200151600a60008884815181106105fa576105f96122c4565b5b602002602001015160000151815260200190815260200160002090805190602001906106279291906113a9565b5061064a8260405180606001604052806025815260200161245c602591396108f5565b915061067c82610677888481518110610666576106656122c4565b5b602002602001015160000151610921565b6108f5565b91506106a0826040518060600160405280602d81526020016124b7602d91396108f5565b91506106ca828783815181106106b9576106b86122c4565b5b6020026020010151602001516108f5565b915061070b826040518060400160405280600281526020017f7d7d0000000000000000000000000000000000000000000000000000000000008152506108f5565b91506001865161071b9190612002565b811461076357610760826040518060400160405280600181526020017f2c000000000000000000000000000000000000000000000000000000000000008152506108f5565b91505b808061076e9061218f565b9150506105bb565b506107b6816040518060400160405280600381526020017f5d7d7d00000000000000000000000000000000000000000000000000000000008152506108f5565b905060008190506108076040518060400160405280600481526020017f64617461000000000000000000000000000000000000000000000000000000008152508285610a829092919063ffffffff16565b6108118385610ab5565b505050505050505050505050565b6060600a6000838152602001908152602001600020805461083f9061212c565b80601f016020809104026020016040519081016040528092919081815260200182805461086b9061212c565b80156108b85780601f1061088d576101008083540402835291602001916108b8565b820191906000526020600020905b81548152906001019060200180831161089b57829003601f168201915b50505050509050919050565b6108cc61142f565b6108d461142f565b6108eb85858584610aec909392919063ffffffff16565b9150509392505050565b6060828260405160200161090a929190611b5f565b604051602081830303815290604052905092915050565b60606000821415610969576040518060400160405280600181526020017f30000000000000000000000000000000000000000000000000000000000000008152509050610a7d565b600082905060005b6000821461099b5780806109849061218f565b915050600a826109949190611e06565b9150610971565b60008167ffffffffffffffff8111156109b7576109b66122f3565b5b6040519080825280601f01601f1916602001820160405280156109e95781602001600182028036833780820191505090505b5090505b60008514610a7657600182610a029190612002565b9150600a85610a119190612206565b6030610a1d9190611db0565b60f81b818381518110610a3357610a326122c4565b5b60200101907effffffffffffffffffffffffffffffffffffffffffffffffffffffffffffff1916908160001a905350600a85610a6f9190611e06565b94506109ed565b8093505050505b919050565b610a99828460800151610b9c90919063ffffffff16565b610ab0818460800151610b9c90919063ffffffff16565b505050565b6000610ae4600360009054906101000a900473ffffffffffffffffffffffffffffffffffffffff168484610bc1565b905092915050565b610af461142f565b610b048560800151610100610c8b565b508385600001818152505082856020019073ffffffffffffffffffffffffffffffffffffffff16908173ffffffffffffffffffffffffffffffffffffffff16815250508185604001907bffffffffffffffffffffffffffffffffffffffffffffffffffffffff191690817bffffffffffffffffffffffffffffffffffffffffffffffffffffffff191681525050849050949350505050565b610ba98260038351610cf5565b610bbc8183610e7a90919063ffffffff16565b505050565b6000806004549050600181610bd69190611db0565b6004819055506000633c6d41b960e01b600080876000015188604001518660028b6080015160000151604051602401610c159796959493929190611b8e565b604051602081830303815290604052907bffffffffffffffffffffffffffffffffffffffffffffffffffffffff19166020820180517bffffffffffffffffffffffffffffffffffffffffffffffffffffffff83818316178352505050509050610c8086838684610e9c565b925050509392505050565b610c9361149c565b6000602083610ca29190612206565b14610cce57602082610cb49190612206565b6020610cc09190612002565b82610ccb9190611db0565b91505b81836020018181525050604051808452600081528281016020016040525082905092915050565b60178167ffffffffffffffff1611610d2c57610d268160058460ff16901b60ff16178461104090919063ffffffff16565b50610e75565b60ff8167ffffffffffffffff1611610d8257610d5b601860058460ff16901b178461104090919063ffffffff16565b50610d7c8167ffffffffffffffff166001856110609092919063ffffffff16565b50610e74565b61ffff8167ffffffffffffffff1611610dd957610db2601960058460ff16901b178461104090919063ffffffff16565b50610dd38167ffffffffffffffff166002856110609092919063ffffffff16565b50610e73565b63ffffffff8167ffffffffffffffff1611610e3257610e0b601a60058460ff16901b178461104090919063ffffffff16565b50610e2c8167ffffffffffffffff166004856110609092919063ffffffff16565b50610e72565b610e4f601b60058460ff16901b178461104090919063ffffffff16565b50610e708167ffffffffffffffff166008856110609092919063ffffffff16565b505b5b5b5b505050565b610e8261149c565b610e9483846000015151848551611082565b905092915050565b60003084604051602001610eb1929190611b33565b604051602081830303815290604052805190602001209050846005600083815260200190815260200160002060006101000a81548173ffffffffffffffffffffffffffffffffffffffff021916908373ffffffffffffffffffffffffffffffffffffffff160217905550807fb5e6e01e79f91267dc17b4e6314d5d4d03593d2ceee0fbb452b750bd70ea5af960405160405180910390a2600260009054906101000a900473ffffffffffffffffffffffffffffffffffffffff1673ffffffffffffffffffffffffffffffffffffffff16634000aea08685856040518463ffffffff1660e01b8152600401610fa793929190611c04565b602060405180830381600087803b158015610fc157600080fd5b505af1158015610fd5573d6000803e3d6000fd5b505050506040513d601f19601f82011682018060405250810190610ff9919061179e565b611038576040517f08c379a000000000000000000000000000000000000000000000000000000000815260040161102f90611c64565b60405180910390fd5b949350505050565b61104861149c565b6110588384600001515184611171565b905092915050565b61106861149c565b6110798485600001515185856111c8565b90509392505050565b61108a61149c565b825182111561109857600080fd5b846020015182856110a99190611db0565b11156110de576110dd8560026110ce886020015188876110c99190611db0565b611256565b6110d89190611fa8565b611272565b5b6000808651805187602083010193508088870111156110fd5787860182525b60208701925050505b60208410611144578051825260208261111f9190611db0565b915060208161112e9190611db0565b905060208461113d9190612002565b9350611106565b60006001856020036101000a03905080198251168184511681811785525050508692505050949350505050565b61117961149c565b8360200151831061119f5761119e84600286602001516111999190611fa8565b611272565b5b83518051602085830101848153818614156111bb576001820183525b5050508390509392505050565b6111d061149c565b846020015184836111e19190611db0565b11156112095761120885600286856111f99190611db0565b6112039190611fa8565b611272565b5b600060018361010061121b9190611e8a565b6112259190612002565b905085518386820101858319825116178152815185880111156112485784870182525b505085915050949350505050565b6000818311156112685782905061126c565b8190505b92915050565b6000826000015190506112858383610c8b565b506112908382610e7a565b50505050565b8280546112a29061212c565b90600052602060002090601f0160209004810192826112c4576000855561130b565b82601f106112dd57803560ff191683800117855561130b565b8280016001018555821561130b579182015b8281111561130a5782358255916020019190600101906112ef565b5b50905061131891906114b6565b5090565b8280546113289061212c565b90600052602060002090601f01602090048101928261134a5760008555611398565b82601f1061135b5780548555611398565b8280016001018555821561139857600052602060002091601f016020900482015b8281111561139757825482559160010191906001019061137c565b5b5090506113a591906114b6565b5090565b8280546113b59061212c565b90600052602060002090601f0160209004810192826113d7576000855561141e565b82601f106113f057805160ff191683800117855561141e565b8280016001018555821561141e579182015b8281111561141d578251825591602001919060010190611402565b5b50905061142b91906114b6565b5090565b6040518060a0016040528060008019168152602001600073ffffffffffffffffffffffffffffffffffffffff16815260200160007bffffffffffffffffffffffffffffffffffffffffffffffffffffffff191681526020016000815260200161149661149c565b81525090565b604051806040016040528060608152602001600081525090565b5b808211156114cf5760008160009055506001016114b7565b5090565b60006114e66114e184611ce4565b611cbf565b9050808382526020820190508285602086028201111561150957611508612336565b5b60005b8581101561155757813567ffffffffffffffff81111561152f5761152e612327565b5b80860161153c898261171d565b8552602085019450602084019350505060018101905061150c565b5050509392505050565b600061157461156f84611d10565b611cbf565b9050808382526020820190508285602086028201111561159757611596612336565b5b60005b858110156115c757816115ad8882611789565b84526020840193506020830192505060018101905061159a565b5050509392505050565b60006115e46115df84611d3c565b611cbf565b905082815260208101848484011115611600576115ff61233b565b5b61160b8482856120ea565b509392505050565b600082601f83011261162857611627612327565b5b81356116388482602086016114d3565b91505092915050565b600082601f83011261165657611655612327565b5b8135611666848260208601611561565b91505092915050565b60008151905061167e81612416565b92915050565b6000813590506116938161242d565b92915050565b60008083601f8401126116af576116ae612327565b5b8235905067ffffffffffffffff8111156116cc576116cb612322565b5b6020830191508360018202830111156116e8576116e7612336565b5b9250929050565b600082601f83011261170457611703612327565b5b81356117148482602086016115d1565b91505092915050565b6000604082840312156117335761173261232c565b5b61173d6040611cbf565b9050600061174d84828501611789565b600083015250602082013567ffffffffffffffff81111561177157611770612331565b5b61177d848285016116ef565b60208301525092915050565b60008135905061179881612444565b92915050565b6000602082840312156117b4576117b3612345565b5b60006117c28482850161166f565b91505092915050565b600080600080606085870312156117e5576117e4612345565b5b60006117f387828801611684565b945050602085013567ffffffffffffffff81111561181457611813612340565b5b61182087828801611641565b935050604085013567ffffffffffffffff81111561184157611840612340565b5b61184d87828801611699565b925092505092959194509250565b60008060008060008060c0878903121561187857611877612345565b5b600087013567ffffffffffffffff81111561189657611895612340565b5b6118a289828a016116ef565b965050602087013567ffffffffffffffff8111156118c3576118c2612340565b5b6118cf89828a016116ef565b955050604087013567ffffffffffffffff8111156118f0576118ef612340565b5b6118fc89828a016116ef565b945050606087013567ffffffffffffffff81111561191d5761191c612340565b5b61192989828a016116ef565b935050608087013567ffffffffffffffff81111561194a57611949612340565b5b61195689828a016116ef565b92505060a087013567ffffffffffffffff81111561197757611976612340565b5b61198389828a01611613565b9150509295509295509295565b6000602082840312156119a6576119a5612345565b5b60006119b484828501611789565b91505092915050565b6119c681612036565b82525050565b6119d581612054565b82525050565b6119e48161205e565b82525050565b60006119f582611d6d565b6119ff8185611d83565b9350611a0f8185602086016120f9565b611a188161234a565b840191505092915050565b611a34611a2f826120b4565b6121d8565b82525050565b6000611a4582611d78565b611a4f8185611d94565b9350611a5f8185602086016120f9565b611a688161234a565b840191505092915050565b6000611a7e82611d78565b611a888185611da5565b9350611a988185602086016120f9565b80840191505092915050565b6000611ab1602383611d94565b9150611abc82612375565b604082019050919050565b6000611ad4600083611da5565b9150611adf826123c4565b600082019050919050565b6000611af7602883611d94565b9150611b02826123c7565b604082019050919050565b611b16816120aa565b82525050565b611b2d611b28826120aa565b6121fc565b82525050565b6000611b3f8285611a23565b601482019150611b4f8284611b1c565b6020820191508190509392505050565b6000611b6b8285611a73565b9150611b7682611ac7565b9150611b828284611a73565b91508190509392505050565b600060e082019050611ba3600083018a6119bd565b611bb06020830189611b0d565b611bbd60408301886119cc565b611bca60608301876119db565b611bd76080830186611b0d565b611be460a0830185611b0d565b81810360c0830152611bf681846119ea565b905098975050505050505050565b6000606082019050611c1960008301866119bd565b611c266020830185611b0d565b8181036040830152611c3881846119ea565b9050949350505050565b60006020820190508181036000830152611c5c8184611a3a565b905092915050565b60006020820190508181036000830152611c7d81611aa4565b9050919050565b60006020820190508181036000830152611c9d81611aea565b9050919050565b6000602082019050611cb96000830184611b0d565b92915050565b6000611cc9611cda565b9050611cd5828261215e565b919050565b6000604051905090565b600067ffffffffffffffff821115611cff57611cfe6122f3565b5b602082029050602081019050919050565b600067ffffffffffffffff821115611d2b57611d2a6122f3565b5b602082029050602081019050919050565b600067ffffffffffffffff821115611d5757611d566122f3565b5b611d608261234a565b9050602081019050919050565b600081519050919050565b600081519050919050565b600082825260208201905092915050565b600082825260208201905092915050565b600081905092915050565b6000611dbb826120aa565b9150611dc6836120aa565b9250827fffffffffffffffffffffffffffffffffffffffffffffffffffffffffffffffff03821115611dfb57611dfa612237565b5b828201905092915050565b6000611e11826120aa565b9150611e1c836120aa565b925082611e2c57611e2b612266565b5b828204905092915050565b6000808291508390505b6001851115611e8157808604811115611e5d57611e5c612237565b5b6001851615611e6c5780820291505b8081029050611e7a85612368565b9450611e41565b94509492505050565b6000611e95826120aa565b9150611ea0836120aa565b9250611ecd7fffffffffffffffffffffffffffffffffffffffffffffffffffffffffffffffff8484611ed5565b905092915050565b600082611ee55760019050611fa1565b81611ef35760009050611fa1565b8160018114611f095760028114611f1357611f42565b6001915050611fa1565b60ff841115611f2557611f24612237565b5b8360020a915084821115611f3c57611f3b612237565b5b50611fa1565b5060208310610133831016604e8410600b8410161715611f775782820a905083811115611f7257611f71612237565b5b611fa1565b611f848484846001611e37565b92509050818404811115611f9b57611f9a612237565b5b81810290505b9392505050565b6000611fb3826120aa565b9150611fbe836120aa565b9250817fffffffffffffffffffffffffffffffffffffffffffffffffffffffffffffffff0483118215151615611ff757611ff6612237565b5b828202905092915050565b600061200d826120aa565b9150612018836120aa565b92508282101561202b5761202a612237565b5b828203905092915050565b60006120418261208a565b9050919050565b60008115159050919050565b6000819050919050565b60007fffffffff0000000000000000000000000000000000000000000000000000000082169050919050565b600073ffffffffffffffffffffffffffffffffffffffff82169050919050565b6000819050919050565b60006120bf826120c6565b9050919050565b60006120d1826120d8565b9050919050565b60006120e38261208a565b9050919050565b82818337600083830152505050565b60005b838110156121175780820151818401526020810190506120fc565b83811115612126576000848401525b50505050565b6000600282049050600182168061214457607f821691505b6020821081141561215857612157612295565b5b50919050565b6121678261234a565b810181811067ffffffffffffffff82111715612186576121856122f3565b5b80604052505050565b600061219a826120aa565b91507fffffffffffffffffffffffffffffffffffffffffffffffffffffffffffffffff8214156121cd576121cc612237565b5b600182019050919050565b60006121e3826121ea565b9050919050565b60006121f58261235b565b9050919050565b6000819050919050565b6000612211826120aa565b915061221c836120aa565b92508261222c5761222b612266565b5b828206905092915050565b7f4e487b7100000000000000000000000000000000000000000000000000000000600052601160045260246000fd5b7f4e487b7100000000000000000000000000000000000000000000000000000000600052601260045260246000fd5b7f4e487b7100000000000000000000000000000000000000000000000000000000600052602260045260246000fd5b7f4e487b7100000000000000000000000000000000000000000000000000000000600052603260045260246000fd5b7f4e487b7100000000000000000000000000000000000000000000000000000000600052604160045260246000fd5b600080fd5b600080fd5b600080fd5b600080fd5b600080fd5b600080fd5b600080fd5b600080fd5b6000601f19601f8301169050919050565b60008160601b9050919050565b60008160011c9050919050565b7f756e61626c6520746f207472616e73666572416e6443616c6c20746f206f726160008201527f636c650000000000000000000000000000000000000000000000000000000000602082015250565b50565b7f536f75726365206d75737420626520746865206f7261636c65206f662074686560008201527f2072657175657374000000000000000000000000000000000000000000000000602082015250565b61241f81612048565b811461242a57600080fd5b50565b61243681612054565b811461244157600080fd5b50565b61244d816120aa565b811461245857600080fd5b5056fe7b2274797065223a2246656174757265222c2270726f70657274696573223a7b226964223a222c202267656f6d65747279223a7b2274797065223a2246656174757265436f6c6c656374696f6e222c226665617475726573223a5b7d2c2267656f6d65747279223a7b2274797065223a22506f6c79676f6e222c22636f6f7264696e61746573223aa2646970667358221220d9b3b754ea847bbd578e92bc45286930a48d690b9bd0e77db84bd0a29f06e3ad64736f6c63430008070033",
    "linkReferences": {},
    "deployedLinkReferences": {}
}