{
    "_format": "hh-sol-artifact-1",
    "contractName": "OracleFacingGeoConsumer",
    "sourceName": "contracts/OracleFacingGeoConsumer.sol",
    "abi": [
        {
            "anonymous": false,
            "inputs": [
                {
                    "indexed": true,
                    "internalType": "bytes32",
                    "name": "id",
                    "type": "bytes32"
                }
            ],
            "name": "ChainlinkCancelled",
            "type": "event"
        },
        {
            "anonymous": false,
            "inputs": [
                {
                    "indexed": true,
                    "internalType": "bytes32",
                    "name": "id",
                    "type": "bytes32"
                }
            ],
            "name": "ChainlinkFulfilled",
            "type": "event"
        },
        {
            "anonymous": false,
            "inputs": [
                {
                    "indexed": true,
                    "internalType": "bytes32",
                    "name": "id",
                    "type": "bytes32"
                }
            ],
            "name": "ChainlinkRequested",
            "type": "event"
        },
        {
            "inputs": [
                {
                    "internalType": "bytes32",
                    "name": "requestId",
                    "type": "bytes32"
                },
                {
                    "internalType": "int256",
                    "name": "geostatsData",
                    "type": "int256"
                },
                {
                    "internalType": "string",
                    "name": "cidValue",
                    "type": "string"
                }
            ],
            "name": "fulfillGeostatsData",
            "outputs": [],
            "stateMutability": "nonpayable",
            "type": "function"
        },
        {
            "inputs": [
                {
                    "internalType": "uint256",
                    "name": "index",
                    "type": "uint256"
                }
            ],
            "name": "getCid",
            "outputs": [
                {
                    "internalType": "string",
                    "name": "",
                    "type": "string"
                }
            ],
            "stateMutability": "view",
            "type": "function"
        },
        {
            "inputs": [
                {
                    "internalType": "uint256",
                    "name": "property_id",
                    "type": "uint256"
                }
            ],
            "name": "getGeometry",
            "outputs": [
                {
                    "internalType": "string",
                    "name": "",
                    "type": "string"
                }
            ],
            "stateMutability": "view",
            "type": "function"
        },
        {
            "inputs": [],
            "name": "getGeostatsData",
            "outputs": [
                {
                    "internalType": "int256",
                    "name": "",
                    "type": "int256"
                }
            ],
            "stateMutability": "view",
            "type": "function"
        },
        {
            "inputs": [
                {
                    "internalType": "string",
                    "name": "agg_x",
                    "type": "string"
                },
                {
                    "internalType": "string",
                    "name": "dataset_code",
                    "type": "string"
                },
                {
                    "internalType": "string",
                    "name": "selected_band",
                    "type": "string"
                },
                {
                    "internalType": "string",
                    "name": "image_scale",
                    "type": "string"
                },
                {
                    "internalType": "string",
                    "name": "start_date",
                    "type": "string"
                },
                {
                    "internalType": "string",
                    "name": "end_date",
                    "type": "string"
                },
                {
                    "components": [
                        {
                            "internalType": "uint256",
                            "name": "property_id",
                            "type": "uint256"
                        },
                        {
                            "internalType": "string",
                            "name": "coordinates",
                            "type": "string"
                        }
                    ],
                    "internalType": "struct ShambaGeoConsumer.Geometry[]",
                    "name": "geometry",
                    "type": "tuple[]"
                }
            ],
            "name": "requestGeostatsData",
            "outputs": [],
            "stateMutability": "nonpayable",
            "type": "function"
        },
        {
            "inputs": [],
            "name": "total_oracle_calls",
            "outputs": [
                {
                    "internalType": "uint256",
                    "name": "",
                    "type": "uint256"
                }
            ],
            "stateMutability": "view",
            "type": "function"
        }
    ],
    "bytecode": "0x60806040526001600455600060085534801561001a57600080fd5b5061003e73326c977e6efc84e512bb9c30f76e30c160ed06fb61006660201b60201c565b61006173d655099967ad0d861fd5a50fa60c59039718cf806100aa60201b60201c565b6100ee565b80600260006101000a81548173ffffffffffffffffffffffffffffffffffffffff021916908373ffffffffffffffffffffffffffffffffffffffff16021790555050565b80600360006101000a81548173ffffffffffffffffffffffffffffffffffffffff021916908373ffffffffffffffffffffffffffffffffffffffff16021790555050565b61249680620000fe6000396000f3fe608060405234801561001057600080fd5b50600436106100625760003560e01c80633beaa6ab1461006757806351c5029a1461009757806374747bff146100b55780638b971b9a146100d3578063b3af88ba146100ef578063d459dd961461010b575b600080fd5b610081600480360381019061007c91906118ee565b61013b565b60405161008e9190611bca565b60405180910390f35b61009f6101e0565b6040516100ac9190611baf565b60405180910390f35b6100bd6101ea565b6040516100ca9190611c2c565b60405180910390f35b6100ed60048036038101906100e89190611788565b6101f0565b005b61010960048036038101906101049190611714565b610688565b005b610125600480360381019061012091906118ee565b6107f1565b6040516101329190611bca565b60405180910390f35b606060096000838152602001908152602001600020805461015b90612092565b80601f016020809104026020016040519081016040528092919081815260200182805461018790612092565b80156101d45780601f106101a9576101008083540402835291602001916101d4565b820191906000526020600020905b8154815290600101906020018083116101b757829003601f168201915b50505050509050919050565b6000600654905090565b60085481565b60007f666663366338336238393031343761346230393865623737376632653062616590506000670de0b6b3a764000090506000610236833063b3af88ba60e01b610896565b905060006102796040518060400160405280600a81526020017f7b226167675f78223a22000000000000000000000000000000000000000000008152508c6108c7565b90506102ba816040518060400160405280601381526020017f222c2022646174617365745f636f6465223a22000000000000000000000000008152506108c7565b90506102c6818b6108c7565b9050610307816040518060400160405280601481526020017f222c202273656c65637465645f62616e64223a220000000000000000000000008152506108c7565b9050610313818a6108c7565b9050610354816040518060400160405280601181526020017f222c2022696d6167655f7363616c65223a0000000000000000000000000000008152506108c7565b905061036081896108c7565b90506103a1816040518060400160405280601081526020017f2c202273746172745f64617465223a22000000000000000000000000000000008152506108c7565b90506103ad81886108c7565b90506103ee816040518060400160405280600f81526020017f222c2022656e645f64617465223a2200000000000000000000000000000000008152506108c7565b90506103fa81876108c7565b905061041e816040518060600160405280603681526020016123fe603691396108c7565b905060005b85518110156105de5785818151811061043f5761043e61222a565b5b602002602001015160200151600a60008884815181106104625761046161222a565b5b6020026020010151600001518152602001908152602001600020908051906020019061048f929190611268565b506104b2826040518060600160405280602581526020016123d9602591396108c7565b91506104e4826104df8884815181106104ce576104cd61222a565b5b6020026020010151600001516108f3565b6108c7565b9150610508826040518060600160405280602d8152602001612434602d91396108c7565b9150610532828783815181106105215761052061222a565b5b6020026020010151602001516108c7565b9150610573826040518060400160405280600281526020017f7d7d0000000000000000000000000000000000000000000000000000000000008152506108c7565b9150600186516105839190611f5e565b81146105cb576105c8826040518060400160405280600181526020017f2c000000000000000000000000000000000000000000000000000000000000008152506108c7565b91505b80806105d6906120f5565b915050610423565b5061061e816040518060400160405280600381526020017f5d7d7d00000000000000000000000000000000000000000000000000000000008152506108c7565b9050600081905061066f6040518060400160405280600481526020017f64617461000000000000000000000000000000000000000000000000000000008152508285610a549092919063ffffffff16565b6106798385610a87565b50505050505050505050505050565b836005600082815260200190815260200160002060009054906101000a900473ffffffffffffffffffffffffffffffffffffffff1673ffffffffffffffffffffffffffffffffffffffff163373ffffffffffffffffffffffffffffffffffffffff161461072a576040517f08c379a000000000000000000000000000000000000000000000000000000000815260040161072190611c0c565b60405180910390fd5b6005600082815260200190815260200160002060006101000a81549073ffffffffffffffffffffffffffffffffffffffff0219169055807f7cc135e0cebb02c3480ae5d74d377283180a2601f8f644edf7987b009316c63a60405160405180910390a2836006819055508282600791906107a59291906112ee565b5060076009600060085481526020019081526020016000209080546107c990612092565b6107d4929190611374565b5060016008546107e49190611d0c565b6008819055505050505050565b6060600a6000838152602001908152602001600020805461081190612092565b80601f016020809104026020016040519081016040528092919081815260200182805461083d90612092565b801561088a5780601f1061085f5761010080835404028352916020019161088a565b820191906000526020600020905b81548152906001019060200180831161086d57829003601f168201915b50505050509050919050565b61089e611401565b6108a6611401565b6108bd85858584610abe909392919063ffffffff16565b9150509392505050565b606082826040516020016108dc929190611acc565b604051602081830303815290604052905092915050565b6060600082141561093b576040518060400160405280600181526020017f30000000000000000000000000000000000000000000000000000000000000008152509050610a4f565b600082905060005b6000821461096d578080610956906120f5565b915050600a826109669190611d62565b9150610943565b60008167ffffffffffffffff81111561098957610988612259565b5b6040519080825280601f01601f1916602001820160405280156109bb5781602001600182028036833780820191505090505b5090505b60008514610a48576001826109d49190611f5e565b9150600a856109e3919061216c565b60306109ef9190611d0c565b60f81b818381518110610a0557610a0461222a565b5b60200101907effffffffffffffffffffffffffffffffffffffffffffffffffffffffffffff1916908160001a905350600a85610a419190611d62565b94506109bf565b8093505050505b919050565b610a6b828460800151610b6e90919063ffffffff16565b610a82818460800151610b6e90919063ffffffff16565b505050565b6000610ab6600360009054906101000a900473ffffffffffffffffffffffffffffffffffffffff168484610b93565b905092915050565b610ac6611401565b610ad68560800151610100610c5d565b508385600001818152505082856020019073ffffffffffffffffffffffffffffffffffffffff16908173ffffffffffffffffffffffffffffffffffffffff16815250508185604001907bffffffffffffffffffffffffffffffffffffffffffffffffffffffff191690817bffffffffffffffffffffffffffffffffffffffffffffffffffffffff191681525050849050949350505050565b610b7b8260038351610cc7565b610b8e8183610e4c90919063ffffffff16565b505050565b6000806004549050600181610ba89190611d0c565b6004819055506000633c6d41b960e01b600080876000015188604001518660028b6080015160000151604051602401610be79796959493929190611afb565b604051602081830303815290604052907bffffffffffffffffffffffffffffffffffffffffffffffffffffffff19166020820180517bffffffffffffffffffffffffffffffffffffffffffffffffffffffff83818316178352505050509050610c5286838684610e6e565b925050509392505050565b610c6561146e565b6000602083610c74919061216c565b14610ca057602082610c86919061216c565b6020610c929190611f5e565b82610c9d9190611d0c565b91505b81836020018181525050604051808452600081528281016020016040525082905092915050565b60178167ffffffffffffffff1611610cfe57610cf88160058460ff16901b60ff16178461101290919063ffffffff16565b50610e47565b60ff8167ffffffffffffffff1611610d5457610d2d601860058460ff16901b178461101290919063ffffffff16565b50610d4e8167ffffffffffffffff166001856110329092919063ffffffff16565b50610e46565b61ffff8167ffffffffffffffff1611610dab57610d84601960058460ff16901b178461101290919063ffffffff16565b50610da58167ffffffffffffffff166002856110329092919063ffffffff16565b50610e45565b63ffffffff8167ffffffffffffffff1611610e0457610ddd601a60058460ff16901b178461101290919063ffffffff16565b50610dfe8167ffffffffffffffff166004856110329092919063ffffffff16565b50610e44565b610e21601b60058460ff16901b178461101290919063ffffffff16565b50610e428167ffffffffffffffff166008856110329092919063ffffffff16565b505b5b5b5b505050565b610e5461146e565b610e6683846000015151848551611054565b905092915050565b60003084604051602001610e83929190611aa0565b604051602081830303815290604052805190602001209050846005600083815260200190815260200160002060006101000a81548173ffffffffffffffffffffffffffffffffffffffff021916908373ffffffffffffffffffffffffffffffffffffffff160217905550807fb5e6e01e79f91267dc17b4e6314d5d4d03593d2ceee0fbb452b750bd70ea5af960405160405180910390a2600260009054906101000a900473ffffffffffffffffffffffffffffffffffffffff1673ffffffffffffffffffffffffffffffffffffffff16634000aea08685856040518463ffffffff1660e01b8152600401610f7993929190611b71565b602060405180830381600087803b158015610f9357600080fd5b505af1158015610fa7573d6000803e3d6000fd5b505050506040513d601f19601f82011682018060405250810190610fcb91906116e7565b61100a576040517f08c379a000000000000000000000000000000000000000000000000000000000815260040161100190611bec565b60405180910390fd5b949350505050565b61101a61146e565b61102a8384600001515184611143565b905092915050565b61103a61146e565b61104b84856000015151858561119a565b90509392505050565b61105c61146e565b825182111561106a57600080fd5b8460200151828561107b9190611d0c565b11156110b0576110af8560026110a08860200151888761109b9190611d0c565b611228565b6110aa9190611f04565b611244565b5b6000808651805187602083010193508088870111156110cf5787860182525b60208701925050505b6020841061111657805182526020826110f19190611d0c565b91506020816111009190611d0c565b905060208461110f9190611f5e565b93506110d8565b60006001856020036101000a03905080198251168184511681811785525050508692505050949350505050565b61114b61146e565b8360200151831061117157611170846002866020015161116b9190611f04565b611244565b5b835180516020858301018481538186141561118d576001820183525b5050508390509392505050565b6111a261146e565b846020015184836111b39190611d0c565b11156111db576111da85600286856111cb9190611d0c565b6111d59190611f04565b611244565b5b60006001836101006111ed9190611de6565b6111f79190611f5e565b9050855183868201018583198251161781528151858801111561121a5784870182525b505085915050949350505050565b60008183111561123a5782905061123e565b8190505b92915050565b6000826000015190506112578383610c5d565b506112628382610e4c565b50505050565b82805461127490612092565b90600052602060002090601f01602090048101928261129657600085556112dd565b82601f106112af57805160ff19168380011785556112dd565b828001600101855582156112dd579182015b828111156112dc5782518255916020019190600101906112c1565b5b5090506112ea9190611488565b5090565b8280546112fa90612092565b90600052602060002090601f01602090048101928261131c5760008555611363565b82601f1061133557803560ff1916838001178555611363565b82800160010185558215611363579182015b82811115611362578235825591602001919060010190611347565b5b5090506113709190611488565b5090565b82805461138090612092565b90600052602060002090601f0160209004810192826113a257600085556113f0565b82601f106113b357805485556113f0565b828001600101855582156113f057600052602060002091601f016020900482015b828111156113ef5782548255916001019190600101906113d4565b5b5090506113fd9190611488565b5090565b6040518060a0016040528060008019168152602001600073ffffffffffffffffffffffffffffffffffffffff16815260200160007bffffffffffffffffffffffffffffffffffffffffffffffffffffffff191681526020016000815260200161146861146e565b81525090565b604051806040016040528060608152602001600081525090565b5b808211156114a1576000816000905550600101611489565b5090565b60006114b86114b384611c6c565b611c47565b905080838252602082019050828560208602820111156114db576114da61229c565b5b60005b8581101561152957813567ffffffffffffffff8111156115015761150061228d565b5b80860161150e8982611666565b855260208501945060208401935050506001810190506114de565b5050509392505050565b600061154661154184611c98565b611c47565b905082815260208101848484011115611562576115616122a1565b5b61156d848285612050565b509392505050565b600082601f83011261158a5761158961228d565b5b813561159a8482602086016114a5565b91505092915050565b6000815190506115b28161237c565b92915050565b6000813590506115c781612393565b92915050565b6000813590506115dc816123aa565b92915050565b60008083601f8401126115f8576115f761228d565b5b8235905067ffffffffffffffff81111561161557611614612288565b5b6020830191508360018202830111156116315761163061229c565b5b9250929050565b600082601f83011261164d5761164c61228d565b5b813561165d848260208601611533565b91505092915050565b60006040828403121561167c5761167b612292565b5b6116866040611c47565b90506000611696848285016116d2565b600083015250602082013567ffffffffffffffff8111156116ba576116b9612297565b5b6116c684828501611638565b60208301525092915050565b6000813590506116e1816123c1565b92915050565b6000602082840312156116fd576116fc6122ab565b5b600061170b848285016115a3565b91505092915050565b6000806000806060858703121561172e5761172d6122ab565b5b600061173c878288016115b8565b945050602061174d878288016115cd565b935050604085013567ffffffffffffffff81111561176e5761176d6122a6565b5b61177a878288016115e2565b925092505092959194509250565b600080600080600080600060e0888a0312156117a7576117a66122ab565b5b600088013567ffffffffffffffff8111156117c5576117c46122a6565b5b6117d18a828b01611638565b975050602088013567ffffffffffffffff8111156117f2576117f16122a6565b5b6117fe8a828b01611638565b965050604088013567ffffffffffffffff81111561181f5761181e6122a6565b5b61182b8a828b01611638565b955050606088013567ffffffffffffffff81111561184c5761184b6122a6565b5b6118588a828b01611638565b945050608088013567ffffffffffffffff811115611879576118786122a6565b5b6118858a828b01611638565b93505060a088013567ffffffffffffffff8111156118a6576118a56122a6565b5b6118b28a828b01611638565b92505060c088013567ffffffffffffffff8111156118d3576118d26122a6565b5b6118df8a828b01611575565b91505092959891949750929550565b600060208284031215611904576119036122ab565b5b6000611912848285016116d2565b91505092915050565b61192481611f92565b82525050565b61193381611fb0565b82525050565b61194281611fba565b82525050565b600061195382611cc9565b61195d8185611cdf565b935061196d81856020860161205f565b611976816122b0565b840191505092915050565b61199261198d8261201a565b61213e565b82525050565b6119a181611fe6565b82525050565b60006119b282611cd4565b6119bc8185611cf0565b93506119cc81856020860161205f565b6119d5816122b0565b840191505092915050565b60006119eb82611cd4565b6119f58185611d01565b9350611a0581856020860161205f565b80840191505092915050565b6000611a1e602383611cf0565b9150611a29826122db565b604082019050919050565b6000611a41600083611d01565b9150611a4c8261232a565b600082019050919050565b6000611a64602883611cf0565b9150611a6f8261232d565b604082019050919050565b611a8381612010565b82525050565b611a9a611a9582612010565b612162565b82525050565b6000611aac8285611981565b601482019150611abc8284611a89565b6020820191508190509392505050565b6000611ad882856119e0565b9150611ae382611a34565b9150611aef82846119e0565b91508190509392505050565b600060e082019050611b10600083018a61191b565b611b1d6020830189611a7a565b611b2a604083018861192a565b611b376060830187611939565b611b446080830186611a7a565b611b5160a0830185611a7a565b81810360c0830152611b638184611948565b905098975050505050505050565b6000606082019050611b86600083018661191b565b611b936020830185611a7a565b8181036040830152611ba58184611948565b9050949350505050565b6000602082019050611bc46000830184611998565b92915050565b60006020820190508181036000830152611be481846119a7565b905092915050565b60006020820190508181036000830152611c0581611a11565b9050919050565b60006020820190508181036000830152611c2581611a57565b9050919050565b6000602082019050611c416000830184611a7a565b92915050565b6000611c51611c62565b9050611c5d82826120c4565b919050565b6000604051905090565b600067ffffffffffffffff821115611c8757611c86612259565b5b602082029050602081019050919050565b600067ffffffffffffffff821115611cb357611cb2612259565b5b611cbc826122b0565b9050602081019050919050565b600081519050919050565b600081519050919050565b600082825260208201905092915050565b600082825260208201905092915050565b600081905092915050565b6000611d1782612010565b9150611d2283612010565b9250827fffffffffffffffffffffffffffffffffffffffffffffffffffffffffffffffff03821115611d5757611d5661219d565b5b828201905092915050565b6000611d6d82612010565b9150611d7883612010565b925082611d8857611d876121cc565b5b828204905092915050565b6000808291508390505b6001851115611ddd57808604811115611db957611db861219d565b5b6001851615611dc85780820291505b8081029050611dd6856122ce565b9450611d9d565b94509492505050565b6000611df182612010565b9150611dfc83612010565b9250611e297fffffffffffffffffffffffffffffffffffffffffffffffffffffffffffffffff8484611e31565b905092915050565b600082611e415760019050611efd565b81611e4f5760009050611efd565b8160018114611e655760028114611e6f57611e9e565b6001915050611efd565b60ff841115611e8157611e8061219d565b5b8360020a915084821115611e9857611e9761219d565b5b50611efd565b5060208310610133831016604e8410600b8410161715611ed35782820a905083811115611ece57611ecd61219d565b5b611efd565b611ee08484846001611d93565b92509050818404811115611ef757611ef661219d565b5b81810290505b9392505050565b6000611f0f82612010565b9150611f1a83612010565b9250817fffffffffffffffffffffffffffffffffffffffffffffffffffffffffffffffff0483118215151615611f5357611f5261219d565b5b828202905092915050565b6000611f6982612010565b9150611f7483612010565b925082821015611f8757611f8661219d565b5b828203905092915050565b6000611f9d82611ff0565b9050919050565b60008115159050919050565b6000819050919050565b60007fffffffff0000000000000000000000000000000000000000000000000000000082169050919050565b6000819050919050565b600073ffffffffffffffffffffffffffffffffffffffff82169050919050565b6000819050919050565b60006120258261202c565b9050919050565b60006120378261203e565b9050919050565b600061204982611ff0565b9050919050565b82818337600083830152505050565b60005b8381101561207d578082015181840152602081019050612062565b8381111561208c576000848401525b50505050565b600060028204905060018216806120aa57607f821691505b602082108114156120be576120bd6121fb565b5b50919050565b6120cd826122b0565b810181811067ffffffffffffffff821117156120ec576120eb612259565b5b80604052505050565b600061210082612010565b91507fffffffffffffffffffffffffffffffffffffffffffffffffffffffffffffffff8214156121335761213261219d565b5b600182019050919050565b600061214982612150565b9050919050565b600061215b826122c1565b9050919050565b6000819050919050565b600061217782612010565b915061218283612010565b925082612192576121916121cc565b5b828206905092915050565b7f4e487b7100000000000000000000000000000000000000000000000000000000600052601160045260246000fd5b7f4e487b7100000000000000000000000000000000000000000000000000000000600052601260045260246000fd5b7f4e487b7100000000000000000000000000000000000000000000000000000000600052602260045260246000fd5b7f4e487b7100000000000000000000000000000000000000000000000000000000600052603260045260246000fd5b7f4e487b7100000000000000000000000000000000000000000000000000000000600052604160045260246000fd5b600080fd5b600080fd5b600080fd5b600080fd5b600080fd5b600080fd5b600080fd5b600080fd5b6000601f19601f8301169050919050565b60008160601b9050919050565b60008160011c9050919050565b7f756e61626c6520746f207472616e73666572416e6443616c6c20746f206f726160008201527f636c650000000000000000000000000000000000000000000000000000000000602082015250565b50565b7f536f75726365206d75737420626520746865206f7261636c65206f662074686560008201527f2072657175657374000000000000000000000000000000000000000000000000602082015250565b61238581611fa4565b811461239057600080fd5b50565b61239c81611fb0565b81146123a757600080fd5b50565b6123b381611fe6565b81146123be57600080fd5b50565b6123ca81612010565b81146123d557600080fd5b5056fe7b2274797065223a2246656174757265222c2270726f70657274696573223a7b226964223a222c202267656f6d65747279223a7b2274797065223a2246656174757265436f6c6c656374696f6e222c226665617475726573223a5b7d2c2267656f6d65747279223a7b2274797065223a22506f6c79676f6e222c22636f6f7264696e61746573223aa264697066735822122018051d38a71bc281fac138b2d3584aee349fc3cf364798fcf9c0f0809941f72e64736f6c63430008070033",
    "linkReferences": {},
    "deployedLinkReferences": {}
}